:020000040800F2
:10000000D8050020A101000863170008C10A0008F4
:100010005F170008A50600080B2B00080000000071
:100020000000000000000000000000009D19000812
:10003000A90600080000000065170008B51A0008AE
:10004000BB010008BB010008BB010008BB010008A0
:10005000BB010008BB010008BB010008BB01000890
:10006000BB010008BB010008BB010008BB01000880
:10007000BB010008BB010008BB010008BB01000870
:10008000BB010008BB010008BB010008BB01000860
:10009000BB010008BB010008BB010008BB01000850
:1000A000BB010008BB010008BB010008BB01000840
:1000B000BB010008BB010008BB010008BB01000830
:1000C000BB010008BB010008BB010008BB01000820
:1000D000BB010008252A0008BB010008BB0100087D
:1000E000BB010008BB010008BB010008BB01000800
:1000F000BB010008BB010008BB010008BB010008F0
:10010000BB010008BB010008BB010008BB010008DF
:10011000BB010008BB010008BB010008BB010008CF
:10012000BB010008BB010008BB010008BB010008BF
:10013000BB010008BB010008BB010008BB010008AF
:10014000BB010008BB010008BB010008BB0100089F
:10015000BB010008BB010008BB010008BB0100088F
:10016000BB010008BB010008BB010008BB0100087F
:10017000BB010008BB010008BB010008BB0100086F
:10018000BB010008BB010008DFF810D000F0E6F961
:1001900000480047B9310008AFF30080D8050020BF
:1001A0000648804706480047FEE7FEE7FEE7FEE711
:1001B000FEE7FEE7FEE7FEE7FEE7FEE7B91A000806
:1001C000890100082DE9FE4F81EA030404F0004490
:1001D00021F0004100944FF0000B23F0004350EA5F
:1001E00001045ED052EA03045BD0C3F30A54C1F3A6
:1001F0000A552C44A4F2F3340194A0FB0254C1F339
:10020000130141F48011C3F3130343F4801301FB82
:10021000024400FB034E840A970A44EA815447EAE9
:100220008357A4FB076802958D0A05FB07854FEAF3
:10023000932C04FB0C542705029D4FEA065847EA0D
:100240001637B5EB08056EEB070C870E920E47EAE2
:10025000811742EA8312A7FB0201B6EB0B0164EBA4
:1002600000042B0D43EA0C335E1844EB1C50DA46B5
:100270005146E7FB0201C5F313044FEA0B3343EA8F
:1002800014534FEA0432019C43EA0603A4F10C0420
:100290000294009CCDE900B400F0C0F803B0BDE8C2
:1002A000F08F00200146F9E70EB540F2334102918C
:1002B0000021CDE900110A460B4600F0AFF803B06B
:1002C00000BDC1F30A5210B5C1F3130140F2FF3370
:1002D00041F480119A4201DA002010BD40F233430C
:1002E0009A42A2F2334203DC524200F078F810BD89
:1002F000904010BD00F0004230F000400AD0C10D27
:1003000001F56071C0F3160042EA0151C2084007CE
:1003100011437047002001467047000030B5041EAD
:1003200071F1000404DB4FF00044404264EB010132
:10033000141E73F1000405DB1C464FF000435242CB
:1003400063EB04038B4208BF824230BD30B5041E0C
:1003500071F1000404DB4FF00044404264EB010102
:10036000141E73F1000405DB1C464FF0004352429B
:1003700063EB0403994208BF904230BD2DE9F05F62
:100380000546002092469B46884606468146402404
:100390001BE0284641464746224600F020F85346D7
:1003A0005A46C01A914110D311461846224600F011
:1003B000E7F82D1A67EB01084F462246012000217D
:1003C00000F0DEF817EB00094E41201EA4F10104F5
:1003D000DFDC484631462A464346BDE8F09F202AE6
:1003E00004DB203A21FA02F00021704721FA02F3DF
:1003F000D040C2F12002914008431946704710B521
:10040000141E73F1000408DA401C41F10001921837
:100410005B411A4301D120F0010010BD2DE9F04DE0
:1004200092469B4611B1B1FA81F202E0B0FA80F235
:100430002032904600F0A4F804460F4640EA0A0035
:1004400041EA0B0153465A46084313D0114653EA7A
:10045000010019D0C8F140025046FFF7C0FF054621
:100460000E4650465946424600F08AF8084305D0E9
:10047000012004E020463946BDE8F08D0020054308
:1004800046EAE0762C4337430A986305E40AA0EB7A
:1004900008000022FD0A44EA47540A3002D5002031
:1004A0000146E9E7010510196941DDE90845001930
:1004B0006941BDE8F04DA2E72DE9F04D00231A4651
:1004C0001B1A8A4103DB00200146BDE8F08DC1F311
:1004D0000A52C1F3130141F480154FF0000BD1070C
:1004E00002D100186D41521E0027044640F2FF1150
:1004F000384601EB620A3E468046024600204FF431
:100500008011FFF76CFFC2197141BB1846EB010067
:10051000B4EB030C75EB000C04D3E41A65EB000597
:1005200017460E46241908F101006D418046342813
:10053000E3DDF91946EB0600091BA84103D24FF091
:10054000FF32134601E0002213461BEB070046EB87
:100550000A51BDE8F04DFFF752BF0000064C074DB1
:1005600006E0E06840F0010394E807009847103483
:10057000AC42F6D3FFF70CFE003D0008203D00081A
:10058000202A04DB203A00FA02F100207047914053
:10059000C2F1200320FA03F319439040704710B5CD
:1005A00000F0B8FA10BD2DE9F04107460C460026D0
:1005B000002509E036023919491B491E88B200F0AE
:1005C00008F80644681CC5B2A542F3DB3046BDE816
:1005D000F08170B50446002600F054FB2546E11773
:1005E00004EB11610912A02202EB4101C8B200F034
:1005F00015FB00F093FBE11704EB11610912A4EB6A
:100600000121C8B200F00AFB00F088FB00F03AFBC1
:10061000A12000F003FB00F081FB002000F0C8FAED
:10062000064600F055FB304670BD2DE9F041054609
:100630000E461746002409E0E20026FA02F2D1B283
:100640002A1990B200F006F8601CC4B2BC42F3DB79
:10065000BDE8F08170B504460E4600F013FB254658
:10066000E11704EB11610912A02202EB4101C8B2AB
:1006700000F0D4FA00F052FBE11704EB116109120B
:10068000A4EB0121C8B200F0C9FA00F047FB3046E4
:1006900000F0C4FA00F042FB00F01AFB0A2002F05E
:1006A000DBFC70BD00BFFEE77047F0B50A460021D5
:1006B0000023002400BF3DE0012505FA01F3156881
:1006C00005EA03049C4234D105684F000326BE406E
:1006D000B543056015794E00B540066835430560A1
:1006E0001579012D02D01579022D16D185684F009C
:1006F0000326BE40B543856055794E00B5408668F7
:1007000035438560456801268E40B54345604568A0
:1007100096798E40B6B235434560C5684F000326D2
:10072000BE40B543C560D5794E00B540C668354377
:10073000C560491C1029BFD3F0BDF0B500230024CB
:100740004D07ED0E02FA05F3CE1000F1200555F825
:1007500026504E07F70E0F26BE40B543CF1000F1CE
:10076000200646F82750CE1000F1200555F82650F7
:1007700045EA0304CE1000F1200545F82640F0BDFF
:100780002DE9F04781460D46BD48007820B902F0BA
:10079000BFF90120BA4908702E12EFB2A6F1A101EB
:1007A000C1EB011202EB411107EB4101A139B54A3E
:1007B000126852885143B34A1268928801FB02F0D2
:1007C000C11700EB5171CC10AE48006800880028BA
:1007D00044D1AC4800684088102813D1A94800686B
:1007E0004088A84B1B689B8800FB03F84FEAE87021
:1007F00008EB5070C0F3CF02A3482118484602F01E
:10080000B3F92BE09F4800684088182813D19D4811
:10081000006840889B4B1B689B8800FB03F84FEAED
:10082000E87008EB5070C0F3CF0298482118484692
:1008300002F09AF912E0934800684088914B1B68D7
:100840009B8800FB03F84FEAE87008EB5070C0F398
:10085000CF028F482118484602F086F9894800687F
:100860000088012844D1874800684088102813D1A7
:10087000844800684088834B1B689B8800FB03F812
:100880004FEAE87008EB5070C0F3CF02814821189E
:10089000484602F069F92BE07A4800684088182839
:1008A00013D1784800684088764B1B689B8800FB12
:1008B00003F84FEAE87008EB5070C0F3CF027648B7
:1008C0002118484602F050F912E06E48006840884E
:1008D0006C4B1B689B8800FB03F84FEAE87008EB41
:1008E0005070C0F3CF026D482118484602F03CF921
:1008F000644800680088022844D162480068408843
:10090000102813D15F48006840885E4B1B689B88A5
:1009100000FB03F84FEAE87008EB5070C0F3CF0219
:100920005F482118484602F01FF92BE0554800683F
:100930004088182813D1534800684088514B1B68E1
:100940009B8800FB03F84FEAE87008EB5070C0F397
:10095000CF0254482118484602F006F912E04948EF
:1009600000684088474B1B689B8800FB03F84FEAF0
:10097000E87008EB5070C0F3CF024B48211848468E
:1009800002F0F2F83F4800680088032844D13D484F
:1009900000684088102813D13A4800684088394BD5
:1009A0001B689B8800FB03F84FEAE87008EB507067
:1009B000C0F3CF023D482118484602F0D5F82BE09D
:1009C000304800684088182813D12E4800684088B5
:1009D0002C4B1B689B8800FB03F84FEAE87008EB80
:1009E0005070C0F3CF0232482118484602F0BCF8DC
:1009F00012E0244800684088224B1B689B8800FB5B
:100A000003F84FEAE87008EB5070C0F3CF022948B2
:100A10002118484602F0A8F81A48006800880428FF
:100A200012D1184800684088164B1B689B8800FB51
:100A300003F84FEAE87008EB5070C0F3CF021E488D
:100A40002118484602F090F80E48006800880528F2
:100A500012D10C48006840880A4B1B689B8800FB39
:100A600003F84FEAE87008EB5070C0F3CF02134868
:100A70002118484602F078F80020BDE8F087000011
:100A80000D0000200000002081341000C33214004B
:100A9000D52E1D00D7272D00192631002B223A0014
:100AA0002D1B4A006F194E0081155700830E6700F9
:100AB000C50C6B00D70874005DF0AB001BF9970004
:100AC00000BFFEE710B500200F4908600F4800681E
:100AD00020F440200D4908600846006840F480205A
:100AE000086000200A49C1F8A402022002F0D0FAEE
:100AF000012005490860022002F0CAFA00200449DA
:100B0000C1F8A00210BD0000A082404200040240D3
:100B1000008040421CB50121022000F025FE4FF468
:100B20004070009001208DF8040000208DF8060030
:100B300003208DF8050001208DF80700694605485F
:100B4000FFF7B3FD0120044908600449C1F8A4027D
:100B50001CBD000000040240A082404200804042D0
:100B600010B500200F4908600F48006820F44020AD
:100B70000D4908600846006840F4802008600120A4
:100B80000A49C1F8A402022002F082FA01200549B4
:100B90000860022002F07CFA00200449C1F8A0029B
:100BA00010BD0000A082404200040240008040428C
:100BB00070B5054600241648006820F4402014490A
:100BC0000860084600680860002616E00020114909
:100BD0000860022002F05CFA01200F49C1F8A0026F
:100BE0006006040E0B487C38006808B1601CC4B273
:100BF000012002F04DFA701CC6B2082EE6DB15B9D2
:100C0000FFF7AEFF01E0FFF75DFF204670BD00007B
:100C100000040240A08240420080404270B5044679
:100C20001548006820F44020134908600846006811
:100C300040F480200860002010490860002517E07B
:100C4000E0090E49091D08606006040E022002F04A
:100C50001FFA01200A49C1F8A002022002F018FA86
:100C6000002006490860022002F012FA681CC5B292
:100C7000082DE5DB70BD000000040240A082404268
:100C80000080404210B50F48006820F440200D4914
:100C900008600846006840F48020086001200A4986
:100CA00008600A49C1F8A002042002F0F1F900200E
:100CB00005490860042002F0EBF900200349C1F85F
:100CC000A00210BD00040240A482404200804042C5
:100CD00010B50F48006820F440200D490860084610
:100CE000006840F48020086000200A4908600A4932
:100CF000C1F8A402042002F0CBF9012005490860E4
:100D00000549C1F8A402042002F0C2F910BD000098
:100D100000040240A08240420080404210B50024FE
:100D20001348006820F44020114908600846006814
:100D3000086001200F49086002F0AAF901200E495D
:100D4000C1F8A00202F0A4F907E0601CC4B2FA2CBA
:100D500003DDFFF7BDFF012010BD064880380068A5
:100D60000028F2D10349091F086000BFF4E7000022
:100D700000040240A48240420080404270B5144802
:100D80004088401E83B212480088401E82B2002173
:100D9000084600F003FA00200E49086001200E49C1
:100DA000C1F8A40200240BE0002504E00B480088F1
:100DB00000F0C4FC6D1C06480088A842F6D8641CEC
:100DC00003484088A042EFD801200249086070BD66
:100DD000FC000020AC824142008041420A00002019
:100DE0002DE9F04105460E461446984628E028466F
:100DF0001649096849880844B0F5A07F05DD00253B
:100E0000124800688088304486B230460F4909682D
:100E100089880844B0F5F07F01DD00250026278889
:100E2000380200EB272087B243463A46314628462F
:100E300000F07CFA054800684088284485B2A41C6C
:100E400020780028D3D1BDE8F08100000000002008
:100E50002DE9FF4F85B081468A460020049003901B
:100E60000798A0EB09050898A0EB0A06CDF80890B2
:100E7000CDF804A0002D01DD012705E00DB9002704
:100E800002E04FF0FF376D42002E02DD4FF0010807
:100E900006E016B94FF0000802E04FF0FF38764246
:100EA000B54201DD2C4600E034464FF0000B21E056
:100EB000019A91B2029A90B200F022F80498284464
:100EC00004900398304403900498A04205DD0498F0
:100ED000001B04900298384402900398A04205DD5C
:100EE0000398001B03900198404401900BF101000E
:100EF0001FFA80FB601C8345DADD09B0BDE8F08F86
:100F000070B504460D462946204600F031F90248E6
:100F1000008800F013FC70BD080000201CB5012102
:100F2000082000F021FC4FF47A60009001208DF839
:100F3000040003208DF8050000208DF80600012034
:100F40008DF8070069460648FFF7AFFB4020009088
:100F500000208DF8040069460148FFF7A6FB1CBD80
:100F6000000C024010B5FFF7D9FF00F0D7F8F720CA
:100F700000F078FBA92000F061FB512000F05EFB3F
:100F80002C2000F05BFB822000F058FBC02000F01A
:100F900069FB112000F052FB092000F04FFBC1203B
:100FA00000F060FB412000F049FBC52000F05AFB37
:100FB000002000F043FB0A2000F040FB802000F0FE
:100FC0003DFBB12000F04EFBB02000F037FB1120BC
:100FD00000F034FBB42000F045FB022000F02EFBB3
:100FE000B62000F03FFB022000F028FB422000F07A
:100FF00025FBB72000F036FBC62000F01FFBBE200B
:1010000000F030FB002000F019FB042000F016FB7C
:10101000E92000F027FB002000F010FB362000F054
:1010200021FB682000F00AFB3A2000F01BFB662041
:1010300000F004FBE02000F015FB002000F0FEFAB9
:10104000072000F0FBFA102000F0F8FA092000F069
:10105000F5FA172000F0F2FA0B2000F0EFFA412029
:1010600000F0ECFA892000F0E9FA4B2000F0E6FAF3
:101070000A2000F0E3FA0C2000F0E0FA0E2000F065
:10108000DDFA182000F0DAFA1B2000F0D7FA0F2062
:1010900000F0D4FAE12000F0E5FA002000F0CEFAEA
:1010A000172000F0CBFA1A2000F0C8FA042000F054
:1010B000C5FA0E2000F0C2FA062000F0BFFA2F2079
:1010C00000F0BCFA452000F0B9FA432000F0B6FA6F
:1010D000022000F0B3FA0A2000F0B0FA092000F074
:1010E000ADFA322000F0AAFA362000F0A7FA0F205D
:1010F00000F0A4FA112000F0B5FA782001F0ACFF5E
:10110000292000F0AFFA002000F0D2FA01200249B5
:101110000860FFF733FE10BD9C82414210B50020ED
:1011200006490860642001F097FF01200449C1F8D6
:10113000A802322001F090FF10BD0000A8824142B9
:101140000080414201490880704700000A000020E9
:10115000014908607047000000000020024A10802A
:10116000024A118070470000080000200A00002099
:1011700030B504460D462B4622462946204600F04F
:101180000DF830BD014908607047000004000020E0
:10119000014908807047000008000020F0B50446AF
:1011A0000D4616461F461149887A00F05BFA201258
:1011B00000F044FAE0B200F041FA301200F03EFADA
:1011C000F0B200F03BFA0949087B00F04BFA281214
:1011D00000F034FAE8B200F031FA381200F02EFADA
:1011E000F8B200F02BFA00F051FAF0BDFC0000203C
:1011F0002DE9F05F8046894615469A46A5F1200004
:10120000C5B244480068B0F804B00BEBDB7008EBE3
:101210006000401E82B23F48006880884844401EFB
:1012200083B249464046FFF7B9FFBAF1000F32D109
:1012300000242AE03748006880880C2806D105EB96
:101240004500354901EB8000075D03E0334800EBC2
:101250000510075D00260EE007F0010020B13048C0
:10126000008800F06BFA03E02E48008800F066FA70
:101270007F10701CC6B227490968888800EBD071BE
:10128000B6EB610FE8DB601CC4B2224800688088BE
:10129000A042CFDC30E0002429E01E4800688088AE
:1012A0000C2806D105EB45001B4901EB8000075DCA
:1012B00003E01A4800EB0510075D00260DE007F07B
:1012C000010038B109EB040291B208EB060290B2BA
:1012D000FFF716FE7F10701CC6B20E490968888899
:1012E00000EBD071B6EB610FE9DB601CC4B20948BA
:1012F00000688088A042D0DC0B484088401E83B242
:1013000009480088401E82B200210846FFF746FFC8
:10131000BDE8F09F04000020203200089436000849
:10132000080000200A000020FC0000202DE9F04702
:10133000B2B004460F4691469A46A0462C48006833
:1013400040883844401E83B22948006840882044C1
:10135000401E82B239462046FFF720FF49466846C4
:10136000FFF70EFA002532E000262BE0BAF1000F5D
:101370000FD11DF8050080213141084020B11D48E2
:10138000008800F0DBF91BE01B48008800F0D6F96C
:1013900016E01DF8050080213141084018B139469A
:1013A0002046FFF7ADFD601C84B2A4EB0800104995
:1013B00009684988884203D14446781C87B203E013
:1013C000701CC6B2082ED1DB00BF681CC5B208492C
:1013D00009684988064A1268928801FB02F0C11721
:1013E00000EB5171B5EBE10FBEDB32B0BDE8F08729
:1013F00000000020080000200A0000202DE9FF4F17
:10140000B5B005468A461746AB46002000900098C6
:1014100018B901F07DFB0120009049480068008860
:10142000022841D14648006840880A2810D10F2080
:101430000290172001902024A7F1300060431FFA8A
:1014400080F9404809EB0001224603A801F08CFB1B
:101450003B48006840880C2810D10F2002901620CD
:1014600001902C24A7F1300060431FFA80F9364820
:1014700009EB0001224603A801F076FB3048006822
:101480004088102810D10F200290222001903A2489
:10149000A7F1300060431FFA80F92C4809EB0001E6
:1014A000224603A801F060FB0198504483B20298E1
:1014B000284482B251462846FFF770FE002639E0E4
:1014C0004FF0000830E0389880B903A8805D802193
:1014D00041FA08F1084020B11D48008800F02EF9BB
:1014E0001EE01C48008800F029F919E003A8805D7F
:1014F000802141FA08F1084018B151462846FFF70B
:10150000FFFC681C85B2A5EB0B000D4909684988F2
:10151000884205D15D460AF101001FFA80FA06E013
:1015200008F1010000F0FF08B8F1080FCBDB00BFA5
:10153000701CC6B2A642C3DB39B0BDE8F08F000014
:1015400004000020D6CF890016D18900CED28900B0
:10155000080000200A0000202DE9F04105460E4653
:101560001446984661E020787E2835DC31480068D2
:101570000088022806D12278434631462846FFF7E4
:101580003DFF05E02278434631462846FFF730FE0E
:1015900028490968888800EBD07105EB61018DB29C
:1015A00024490968888800EBD07105EB6101B1F529
:1015B000A07F05DD00251F4800688088304486B282
:1015C00030461C49096889880844B0F5F07F01DD80
:1015D00000250026641C28E0284617490968498828
:1015E0000844B0F5A07F05DD002513480068808819
:1015F000304486B230461049096889880844B0F5FD
:10160000F07F01DD002500262788380200EB272027
:1016100087B243463A4631462846FFF787FE0648DA
:1016200000684088284485B2A41C207800289AD1FC
:10163000BDE8F081040000200000002010B5044641
:1016400000200649086001200549C1F8A40220468F
:1016500000F084F901200149086010BDAC824142CC
:101660000080414210B50446002006490860064942
:10167000C1F8A402204600F071F901200149086078
:1016800010BD0000AC8241420080414200B50249D9
:10169000087AFFF7E7FF00BDFC00002030B50546E3
:1016A0000C462846FFF7DEFFE0B2FFF7C7FF30BD6C
:1016B00010B504462A20204948812B2088812C20FF
:1016C000088134B1012C10D0022C1AD0032C30D157
:1016D00023E04FF4A070184908804FF4F070488060
:1016E00008213620FFF7DAFF24E04FF4F0701249AA
:1016F00008804FF4A070488068213620FFF7CEFFA5
:1017000018E04FF4A0700C4908804FF4F070488046
:10171000C8213620FFF7C2FF0CE04FF4F0700649F5
:1017200008804FF4A0704880A8213620FFF7B6FF4C
:1017300000E000BF00BF10BDFC00002010B5044653
:10174000F82101EA2420FFF779FFFC2101EAE400F7
:10175000FFF774FFE106080EFFF770FF10BD00BF32
:10176000FEE770477047000029B1064A126802433D
:10177000044B1A6004E0034A12688243014B1A606A
:10178000704700003038024029B1064A126802430F
:10179000044B1A6004E0034A12688243014B1A604A
:1017A000704700004438024029B1064A12680243DB
:1017B000044B1A6004E0034A12688243014B1A602A
:1017C000704700002438024000B587B00121022094
:1017D000FFF7CAFF01210803FFF7D6FF3820059065
:1017E00002208DF8180000208DF81A0003208DF8D3
:1017F000190001208DF81B0005A92248FEF755FFAE
:10180000052203211F48FEF798FF052204211D48E9
:10181000FEF793FF052211461A48FEF78EFF0121BD
:101820000803FFF7C1FF00214FF48050FFF7BCFF12
:101830000020ADF800004FF48270ADF802000020E7
:10184000ADF804000220ADF806000120ADF8080054
:101850004002ADF80A003820ADF80C000020ADF8C9
:101860000E000720ADF810006946074800F058F850
:101870000121054800F03AF8FF2000F007F807B012
:1018800000BD0000000402400030014010B50446D5
:1018900000BF02210A4800F035F80028F9D021469F
:1018A000074800F03BF800BF0121054800F02AF886
:1018B0000028F9D0024800F02EF8C0B210BD000098
:1018C0000030014010B50446074800884FF6C77144
:1018D0000840054908800846008820430880012107
:1018E000014800F003F810BD0030014021B102882A
:1018F00042F04002028004E002884FF6BF731A40B3
:10190000028070470246002013890B400BB1012072
:1019100000E0002070470146888970478181704748
:1019200010B50022028802F441520B884C882343F0
:101930008C882343CC8823430C8923434C8923433D
:101940008C892343CC8923431A430280838B4FF233
:10195000FF74234083830B8A038210BD002108217A
:1019600015E000F080021AB101220A4B1A6002E071
:101970000022084B1A600022064B0C331A60012229
:10198000054BC3F8A0224206100E4A1ED1B2002910
:10199000E7DC70479482414200804142704700007A
:1019A0000CB50020019000903448006840F480306D
:1019B0003249086000BF3148006800F400300090F0
:1019C0000198401C0190009818B90198B0F5A04FFB
:1019D000F1D12A48006800F4003010B101200090D5
:1019E00001E0002000900098012846D123484030B3
:1019F000006840F08050214940310860204800686C
:101A000040F440401E4908601C48083000681B49EB
:101A1000083108600846006840F400400860084645
:101A2000006840F4A05008601648091F0860081FAD
:101A3000006840F08070091F086000BF0F48006810
:101A400000F000700028F9D040F205700E490860DF
:101A50000A480830006820F003000849083108608F
:101A60000846006840F00200086000BF03480830E4
:101A7000006800F00C000828F8D10CBD00380240C6
:101A80000070004019544007003C0240042808D16F
:101A90004FF0E021096941F004014FF0E0221161AB
:101AA00007E04FF0E021096921F004014FF0E02246
:101AB000116170477047000010B51548006840F488
:101AC0007000134908601348006840F00100114994
:101AD000086000200F49083108600E4800680E4970
:101AE00008400C4908600D48091D0860081F00687F
:101AF00020F48020091F0860002006490C3108608E
:101B0000FFF74EFF4FF0006001498039086010BDBB
:101B100088ED00E000380240FFFFF6FE10300024A0
:101B20002DE9F04FB3B004460D4617461E46DDE9D9
:101B30003EABDDE93C894FF47840FFF729FB0123F8
:101B40004DA2A0212820FFF707FD01234BA2A021D1
:101B50007820FFF701FD012349A2B4212820FFF7D7
:101B6000FBFC012347A2B4217820FFF7F5FC0123F9
:101B700045A2C8212820FFF7EFFC012343A2C8217A
:101B80007820FFF7E9FC012341A2DC212820FFF7A0
:101B9000E3FC01233FA2DC217820FFF7DDFC0123D9
:101BA0003DA2F0212820FFF7D7FC22463CA101A846
:101BB00001F030F8042301AAA0214020FFF7CCFC5B
:101BC0002A4637A101A801F025F8042301AAA02183
:101BD0009020FFF7C1FC3A4631A101A801F01AF8A4
:101BE000042301AAB4214020FFF7B6FC32462CA101
:101BF00001A801F00FF8042301AAB4219020FFF7F7
:101C0000ABFC424626A101A801F004F8042301AA76
:101C1000C8214020FFF7A0FC4A4621A101A800F0FE
:101C2000F9FF042301AAC8219020FFF795FC524632
:101C30001BA101A800F0EEFF042301AADC21402033
:101C4000FFF78AFC5A4616A101A800F0E3FF04231F
:101C500001AADC219020FFF77FFC11A101A8409A86
:101C600000F0D8FF0F480188032301AA6020FFF786
:101C700073FC33B0BDE8F08F78313A0079313A0027
:101C800078323A0079323A0078333A0079333A00C0
:101C900078343A0079343A006661632069733A0017
:101CA00025640000FC0000202DE9F0472DED068B97
:101CB0008AB04FF00008C14600BF4FF6FF711F20E9
:101CC000FFF74CFAFFF75AF84FF47840FFF760FA45
:101CD000FFF754F80020FFF75BFA0123ECA228215C
:101CE0000A20FFF739FC0123F1A238210A20FFF76F
:101CF00033FC0123F7A248210A20FFF72DFC012322
:101D0000FCA258210A20FFF727FC1421084600F006
:101D1000CFFB0020FE4908759FEDFE0A084680EDC6
:101D2000060AA2E3FA48416801208847F848007D86
:101D300000F0C00040287CD14FF00009F448007D3D
:101D400020F04000F24908750846008A06A921F8EB
:101D50002800EF48408A01EB8801488008F1010023
:101D600000F0FF08B8F1010F09D0B8F1020F12D04E
:101D7000B8F1030F1ED0B8F1040F0BD12CE01421E1
:101D8000084600F095FBE4490988143988B214210B
:101D900000F08EFB5AE3E0490988143988B2142117
:101DA00000F086FBDC484088143881B2142000F033
:101DB0007FFB4BE3D8484088143881B2142000F0F0
:101DC00077FBD54A5288143A91B2D34A1288143A12
:101DD00090B200F06DFB39E3BDF81810BDF81C207F
:101DE000881A002801DB014600E041420C46BDF89C
:101DF0001A20BDF81E10501A002801DB014600E031
:101E000041420D4664436D436019FEF74DFA41ECC3
:101E10001A0BB0EE4A0AF0EE6A0A00F00FFFB0EEBD
:101E2000409AF0EE609A51EC190BFEF74AFA86B22E
:101E300000E00CE3BDF82010BDF82420881A00282B
:101E400001DB014600E041420C46BDF82220BDF80E
:101E50002610501A002801DB014600E041420D46E1
:101E600064436D436019FEF71FFA41EC1A0BB0EEA4
:101E70004A0AF0EE6A0A00F0E1FEB0EE409AF0EE97
:101E8000609A51EC190BFEF71CFA87B200EE106A4B
:101E9000F8EE400A00EE107AB8EE400A80EE801AA2
:101EA00011EE10AA5046FEF725FA41EC180B9FEDF3
:101EB0009B0B53EC102B51EC180BFEF72FFA0AD3A7
:101EC0009FED980B53EC102B51EC180BFEF73EFADC
:101ED00001D306B1AFBB4FF000088F4A5288143AC5
:101EE00091B28D4A1288143A90B200F0E1FA1421AE
:101EF000084600F0DDFA9FED8D0B53EC102B51ECF2
:101F0000180BFEF75FF941EC190BFEF7DAF91FFA2F
:101F100080FABDF82610BDF82400BDF82220CDE9D6
:101F2000031ACDE90120BDF820000090BDF81E3055
:101F3000BDF81C20BDF81A10BDF81800FFF7F0FD21
:101F400093E2FFE7BDF81810BDF82020881A00289A
:101F500001DB014600E041420C46BDF81A20BDF805
:101F60002210501A002801DB014600E041420D46D4
:101F700064436D436019FEF797F941EC1A0BB0EE1C
:101F80004A0AF0EE6A0A00F059FEB0EE409AF0EE0E
:101F9000609A51EC190BFEF794F986B2BDF81C104B
:101FA000BDF82420881A002801DB014600E04142E8
:101FB0000C46BDF81E20BDF82610501A002801DB83
:101FC000014600E041420D4664436D436019FEF74F
:101FD0006BF941EC1A0BB0EE4A0AF0EE6A0A00F017
:101FE0002DFEB0EE409AF0EE609A51EC190BFEF720
:101FF00068F987B200EE106AF8EE400A00EE107A37
:10200000B8EE400A80EE801A11EE10AA5046FEF794
:1020100071F941EC180B9FED410B53EC102B51EC77
:10202000180BFEF77BF908D39FED3E0B53EC102BFA
:1020300051EC180BFEF78AF97CD24FF00008364AB3
:102040005288143A91B2344A1288143A90B200F08D
:102050002FFA1421084600F02BFA9FED340B53ECB5
:10206000102B51EC180BFEF7ADF841EC190BFEF7F5
:1020700028F91FFA80FABDF82610BDF82400BDF833
:102080002220CDE9031ACDE90120BDF8200052E05D
:10209000506C656173652075736520746865207385
:1020A00074796C757320636C69636B207468650068
:1020B00063726F7373206F6E207468652073637230
:1020C00065656E2E5468652063726F73732077693F
:1020D0006C6C0000616C77617973206D6F766520A0
:1020E000756E74696C207468652073637265656EC3
:1020F0002000000061646A7573746D656E742069F8
:102100007320636F6D706C657465642E0000000051
:10211000BC00002000000000FC000020666666662F
:102120006666EE3FCDCCCCCCCCCCF03F00000000BE
:10213000000059400BE00090BDF81E30BDF81C2097
:10214000BDF81A10BDF81800FFF7EAFC8DE1BDF8E4
:102150001C10BDF82020881A002801DB014600E091
:1021600041420C46BDF81E20BDF82210501A00282E
:1021700001DB014600E041420D4664436D436019B6
:10218000FEF792F841EC1A0BB0EE4A0AF0EE6A0A3A
:1021900000F054FDB0EE409AF0EE609A51EC190B4D
:1021A000FEF78FF886B2BDF81810BDF82420881A03
:1021B000002801DB014600E041420C46BDF81A2030
:1021C000BDF82610501A002801DB014600E041420C
:1021D0000D4664436D436019FEF766F841EC1A0B37
:1021E000B0EE4A0AF0EE6A0A00F028FDB0EE409A1E
:1021F000F0EE609A51EC190BFEF763F887B200EE2F
:10220000106AF8EE400A00EE107AB8EE400A80EE4E
:10221000801A11EE10AA5046FEF76CF841EC180B2C
:102220001FED420B53EC102B51EC180BFEF776F818
:1022300008D31FED440B53EC102B51EC180BFEF799
:1022400085F835D24FF000088A4A5288143A91B284
:10225000884A1288143A90B200F02AF914210846EC
:1022600000F026F91FED4F0B53EC102B51EC180B1F
:10227000FDF7A8FF41EC190BFEF723F81FFA80FACF
:10228000BDF82600BDF82410BDF82220CDE9030AD0
:10229000CDE90121BDF820000090BDF81E30BDF849
:1022A0001C20BDF81A10BDF81800FFF739FCDCE05F
:1022B000BDF81C00BDF81810401A00EE100AF8EE28
:1022C000C00A6C480088283800EE100AB8EEC00A30
:1022D00080EE201A684880ED061ABDF81C00BDF893
:1022E0001810084400EE100AF8EEC00A6148008891
:1022F00000EE100AB8EE400A5F4890ED061A01EEB3
:10230000600AF0EE000A80EE201ABDEEC10A10EE5F
:10231000100A00B258490884BDF82200BDF81A100E
:10232000401A00EE100AF8EEC00A524840882838D9
:1023300000EE100AB8EEC00A80EE201A4E4880ED7A
:10234000071ABDF82200BDF81A10084400EE100A62
:10235000F8EEC00A4748408800EE100AB8EE400A7E
:10236000454890ED071A01EE600AF0EE000A80EE93
:10237000201ABDEEC10A10EE100A00B23E49488490
:102380000A4692ED060ABDEEC00A10EE101A0029A8
:1023900001DB0A4600E04A42022A0DDC364A92ED91
:1023A000070ABDEEC00A10EE100A002801DB024643
:1023B00000E04242022A31DD4FF000082D4A5288E7
:1023C000143A91B22B4A1288143A90B200F070F885
:1023D0001421084600F06CF8012328A21A212820B5
:1023E000FFF7BAF8244890F8240008B9012000E06B
:1023F0000020214981F82400084690F8240030B1DB
:10240000902023490870D0202249087005E0D02090
:102410001F49087090201F49087026E01F20FEF712
:10242000B7FEFEF7ABFC01231BA26E212320FFF7B2
:1024300093F84FF47A7000F00FFE00F019FAFEF7EF
:102440009DFC0AB0BDEC068BBDE8F08700BF0A20FA
:1024500000F002FE09F101001FFA80F9B9F57A7F58
:1024600002DD00F059F801E000BF5BE400BF00BFEF
:10247000E7E70000FC000020BC0000205450204E84
:1024800065656420726561646A757374210000007B
:10249000E4000020E5000020546F7563682053635A
:1024A0007265656E2041646A757374204F4B21001C
:1024B00070B504460D4604F10D018AB2193988B28F
:1024C0002B462946FEF7C4FC05F10D0083B21938EE
:1024D00081B222462046FEF7BBFC6A1C91B2621C08
:1024E00090B2FEF70DFD6A1C91B2621E90B2FEF72B
:1024F00007FD6A1E91B2621C90B2FEF701FD6A1ED2
:1025000091B2621E90B2FEF7FBFC00230622294620
:10251000204600F009FE70BD10B53520FEF759F8D1
:1025200004460A2C46D104212820FEF73CF8044634
:1025300000EE104AB8EEC00ADFED1F0A80EE201A46
:102540001E4880ED061A04212C20FEF72CF80446C4
:1025500000EE104AB8EEC00ADFED170A80EE201A2E
:10256000164880ED071A02213020FEF71CF800B251
:102570001249088402213220FEF715F800B20F49F3
:1025800048843420FEF725F80C4981F824000846D9
:1025900090F8240030B1902009490870D0200949F2
:1025A000087005E0D02006490870902005490870A1
:1025B000012010BD0020FCE720BCBE4CBC00002068
:1025C000E4000020E50000201CB501211620FFF7E3
:1025D000CBF80120009000208DF804008DF8060053
:1025E00003208DF8050001208DF8070069461D487D
:1025F000FEF75BF80420009069461B48FEF755F88B
:102600004FF48070009001208DF804006946164850
:10261000FEF74BF80220009001208DF80400694677
:102620001048FEF742F84FF40060009001208DF84A
:10263000040069460D48FEF738F80D49881E00F081
:102640009FF8FDF7ACFFFFF767FF08B100201CBD46
:10265000FEF794FBFFF728FB00F00AF9FFF75CFF99
:102660000120F4E70010024000040240000802408C
:10267000CE00002070B506460025002400201E492B
:1026800008601E49C1F8AC021D490860304600F0E0
:10269000A3F9062000F0FCFC00201A49C1F88402CE
:1026A000012000F0F5FC01201349086000F0F0FC67
:1026B00000201449C1F8840200BF15E04FF6FF70F6
:1026C00000EA440400200C490860012000F0E0FC0E
:1026D00001200C49C1F8840209489838006808B103
:1026E000601C84B2681CC5B2102DE7DB24110120E8
:1026F00003490860204670BD840242420000414206
:10270000A0824042000042422DE9FE43804600275D
:10271000002406E04046FFF7ADFF2DF81400601CD2
:1027200084B2052CF6DB002416E0601C85B20FE0B5
:102730003DF814003DF81510884207DD3DF814609F
:102740003DF815002DF814002DF81560681C85B2B1
:10275000052DEDDB601C84B2042CE6DB0027012490
:1027600005E03DF81400384487B2601C84B2042CA4
:10277000F7DB032097FBF0F086B23046BDE8FE831E
:102780002DE9F04104460D4607480078FFF7BCFFED
:10279000064606480078FFF7B7FF074626802F80D9
:1027A0000120BDE8F0810000E4000020E5000020E9
:1027B0007FB504460D4602A903A8FFF7E1FF0646D0
:1027C00016B9002004B070BD694601A8FFF7D8FF14
:1027D00006460EB90020F5E7BDF80400BDF80C1060
:1027E000884206DCBDF80C10BDF80400323081428E
:1027F0000CDBBDF80C00BDF80410884236DCBDF8D7
:102800000410BDF80C00323081422FDABDF8000010
:10281000BDF80810884206DCBDF80810BDF80000BD
:10282000323081420CDBBDF80800BDF80010884250
:102830001CDCBDF80010BDF808003230814215DA0A
:10284000BDF80C10BDF80420881800EBD071C1F35E
:102850004F012180BDF80810BDF80020881800EB5A
:10286000D071C1F34F0129800120ABE70020A9E717
:1028700010B51D4890ED060ADFED1C0A20EE200A77
:10288000BDEEC00A10EE104A042221462820FDF7B2
:10289000CCFE154890ED070ADFED140A20EE200A61
:1028A000BDEEC00A10EE104A042221462C20FDF78E
:1028B000BCFE0D48B0F9201002223020FDF7B5FE15
:1028C0000948B0F9221002223220FDF7AEFE064878
:1028D00090F824103420FDF7BDFE0A24214635204F
:1028E000FDF7B8FE10BD0000BC00002020BCBE4CAF
:1028F00010B504463648006800284BD124B135494C
:10290000881EFFF755FF34E03249881EFFF750FF5D
:1029100078B330481238B0F9200000EE100AB8EE53
:10292000C00A2C48123890ED061A008A00EE900A70
:10293000F8EE600A01EE200ABCEEC00A10EE100AA2
:102940002449123908820846B0F9220000EE100A24
:10295000B8EEC00A084690ED071A408A00EE900AC9
:10296000F8EE600A01EE200ABCEEC00A10EE100A72
:10297000488218481238007D00F0800010BBC0204B
:102980001449123908750846008A88810846408A29
:10299000C88117E00F481238007D00F0800040B178
:1029A0000C481238007D20F080000A491239087561
:1029B00008E00020074912398881C8814FF6FF706E
:1029C0000882488203481238007D00F0800010BD64
:1029D00000024242CE00002070B50446002500BF30
:1029E00017E004F0800018B101200B49086002E0F4
:1029F0000020094908606006040E002007490860AD
:102A0000012000F045FB01200549C1F88402681C43
:102A1000C5B2082DE5DB70BDAC02414284024242E2
:102A20000000424210B540F225511D4800F03EF82A
:102A300010B31B4800F064F8C4B21A48008800F4D0
:102A40000040C8B91748008800F4804060B10A2CE3
:102A500003D000201349088020E01248008840F489
:102A600000401049088019E00D2C06D10D4800885F
:102A700040F480400B49088010E00A480088C0F309
:102A80000D0009490C5407480088401C054908807E
:102A900008460088C72801DD0020088010BD00001E
:102AA00000100140F40000200A01002070B5024629
:102AB000002400230025002040F66A16B14200D110
:102AC00000BFC1F3421501F01F03012606FA03F30C
:102AD000012D02D19689334006E0022D02D1168ADB
:102AE000334001E0968A33400C12012606FA04F4C2
:102AF0001688344013B10CB1012000E0002070BDF5
:102B000001468888C0F30800704700BFFEE7000058
:102B100000B593B001210220FEF726FE01200190AE
:102B20008DF8080000208DF80A0003208DF80900B8
:102B300001208DF80B0001A90848FDF7B6FD012022
:102B400007490860FEF740FE0020FEF7BBFE03A821
:102B500000F030F80349088013B000BD00040240C3
:102B600080824042EE0000202DE9F04106460C46EE
:102B7000174600200E4908600320FEF787FEC4F3C5
:102B80000740FEF783FEC4F30720FEF77FFEE0B2A6
:102B9000FEF77CFE002504E0FF20FEF777FE70556F
:102BA0006D1CBD42F8D3012001490860BDE8F081E9
:102BB0008082404270B50446002500201349086019
:102BC0009020FEF763FE0020FEF760FE0020FEF777
:102BD0005DFE0020FEF75AFEFF20FEF757FE0002C2
:102BE00004F8010BFF20FEF751FE2070FF20FEF7D6
:102BF0004DFE45EA0025FF20FEF748FE0543012073
:102C00000349C1F88002284670BD0000808240421E
:102C1000008040420FB4084B10B504A902AA0398E3
:102C200000F096F8044602A9002000F0F1F92046D1
:102C300010BC5DF814FB00001130000800B52DED4C
:102C4000048BB0EE409AF0EE609A83B051EC190B11
:102C5000FDF732FC41EC180B18EE100A18EE901A32
:102C60008DED008B002818BF0120084320F00040A4
:102C7000C0F17F6000F1E040C00F14D019EE101ACF
:102C800019EE900A8DED009B002918BF0121084321
:102C900020F00040C0F17F6000F1E040C00F04BFB1
:102CA000012000F017F8B0EE480A03B0F0EE680A11
:102CB000BDEC048B00BD02E008C8121F08C1002A49
:102CC000FAD170477047002001E001C1121F002AAD
:102CD000FBD170470149086070470000F8000020F0
:102CE0002DE9F04104460D4616461F46EA1991B2F9
:102CF000A21990B2FEF704F9EA1991B2A21B90B2A0
:102D0000FEF7FEF8EA1B91B2A21990B2FEF7F8F8AE
:102D1000EA1B91B2A21B90B2FEF7F2F8AA1991B287
:102D2000E21990B2FEF7ECF8AA1991B2E21B90B248
:102D3000FEF7E6F8AA1B91B2E21990B2FEF7E0F8AE
:102D4000AA1B91B2E21B90B2FEF7DAF8BDE8F0815F
:102D50002DE9FF4F8DB09B460F460446002606E046
:102D600025280BD05A460F999047641C761C207872
:102D70000028F5D111B03046BDE8F08F0025A846F7
:102D80000122984900E0054314F8013F203B02FA74
:102D900003F00842F7D120782E2817D114F8010F3C
:102DA00045F004052A280ED06FF02F022078A0F1FC
:102DB000300109290AD808EB880102EB410100EB38
:102DC0000108641CF2E757F8048B641C20786C2817
:102DD0000DD004DC4C2812D06A2811D104E07428EC
:102DE0000DD07A280CD10AE045F4001507E061788F
:102DF00045F48015814202D1641C05F58015641CE0
:102E00002078692844D008DC0028B3D0582867D03F
:102E100063280FD0642808D13AE0702865D0732861
:102E200012D075285AD078285AD05A460F99904710
:102E3000761CD5E017F8040B8DF8000000208DF803
:102E40000100E946012003E057F8049B4FF0FF30F2
:102E500069074FF0000501D40AE06D1C45450DDA05
:102E60008542FADB19F805100029F6D106E06D1C41
:102E70008542FCDB19F805100029F8D12E4404E046
:102E800019F8010B5A460F9990476D1EF8D2A7E02A
:102E90000A200021CDE90801C5F3025002280CD018
:102EA00001CFC117021E71F100020CDA0023D0EB32
:102EB000030063EB01012D2208E0FF1D27F0070747
:102EC000F7E80201EEE72A0504D52B228DF8282029
:102ED00001223CE0EA073AD02022F7E70A2000E08E
:102EE00010200021CDE9080107E01020002145F065
:102EF0000405CDE908014FF00808C5F30250022887
:102F000010D001CF00214FF0000A2A0720D52278E7
:102F1000702A0DD0DDE908C38CF0100C5CEA030CBC
:102F20000CD015E0FF1D27F00707F7E80201EAE7DC
:102F300040228DF828204FF0010A0CE050EA0103EE
:102F400006D030238DF828308DF8292002229246B1
:102F50002278582A04D024A20DF120090B9209E00E
:102F600026A2F9E7DDE90823FDF708FA0B9B9B5C35
:102F700009F8013D50EA0102F4D1ADEB090020301F
:102F80000890680701D44FF001080899884503DDCF
:102F90000898A8EB000000E000208046002506E02D
:102FA0000AA85A46405D0F9990476D1C761C5545FE
:102FB000F6DB04E030205A460F999047761CB8F1B2
:102FC0000001A8F10108F5DC05E019F8010B5A46EB
:102FD0000F999047761C0899481E08900029F4DC48
:102FE000641CC4E6092801003031323334353637E9
:102FF0003839616263646566000000003031323345
:1030000034353637383941424344454600000000E4
:103010000A68531C0B6010707047000010B504461E
:103020006FF00400FEF732FDE11704EB5171C1F3BC
:10303000C701074A11701046007800EB4001C1EB50
:10304000C0104FF6FF7101EAC0000249088010BDB0
:10305000F0000020F200002070B504464FF4077025
:1030600094FBF0F0C6B24FF4077094FBF0F100FB54
:10307000114085B205E04FF4077000F02FF8701E84
:10308000C6B2002EF7D115B1284600F027F870BD62
:103090000146114A12784A434FF0E0235A61002258
:1030A0009A611A46126942F001021A6100BF4FF09C
:1030B000E022106900F001021AB100F48032002A07
:1030C000F5D04FF0E022126922F001024FF0E02328
:1030D0001A6100229A617047F00000200146114AEF
:1030E00012884A434FF0E0235A6100229A611A463F
:1030F000126942F001021A6100BF4FF0E02210692C
:1031000000F001021AB100F48032002AF5D04FF02D
:10311000E022126922F001024FF0E0231A6100223E
:103120009A617047F20000202DE9F05F82468B46DD
:103130001746994600243D467800C0F10306B9F1D0
:10314000000F1ED01AE0A04607E04346224659462B
:103150005046FFF7C5FD08F10108A845F5DD002E32
:1031600004DA042000FB0460861D06E0601B0421D5
:1031700001FB006000F10A066D1E641CAC42E2DD3A
:1031800017E014E02B46224659465046FFF7A8FDAB
:10319000002E04DA042000FB0460861D06E0601B9C
:1031A000042101FB006000F10A066D1E641CAC42A4
:1031B000E8DDBDE8F09F0000A820FFF72FFFFDF736
:1031C000D1FEFFF701FA4FF6E070FDF7BBFF4DF6B9
:1031D0009230FDF7DDFF0848FDF7BAFF0748FDF71D
:1031E000D1FFFDF7CBFD002305A219461846FDF7D8
:1031F000F7FD00BFFEE70000B6000020140000202D
:10320000CED2B0AEC4E3D0A1E7DBE7DBC7D7C7D7E8
:10321000C3B4C3B4DFD5CFEBC4E3DFD500000000F7
:103220000000000000000000000000000000040496
:10323000040404040004000000140A0A0000000052
:1032400000000000000014143F140A3F0A0A0000A6
:1032500000041E1505060C14150F040000001215BD
:103260000D0A142C2A1200000000040A0A1E15156B
:10327000093600000002020100000000000000000A
:1032800000201008080808080810200000020408A0
:10329000080808080804020000000004150E0E15B6
:1032A0000400000000000404041F040404000000E3
:1032B0000000000000000000000202010000000009
:1032C000001F0000000000000000000000000000DF
:1032D00000020000001008080804040202020100B5
:1032E00000000E1111111111110E00000000040652
:1032F00004040404040E000000000E11110804026E
:10330000011F000000000E11100C1010110E000023
:103310000000080C0A0A091E0818000000001F011E
:10332000010F1010110E000000000E09010F111105
:10333000110E000000001F0908040404040400002A
:1033400000000E11110E1111110E000000000E11DF
:1033500011111E10120E00000000000004000000F9
:10336000000400000000000000040000000404004D
:1033700000201008040204081020000000000000D3
:103380001F00001F000000000002040810201008A9
:103390000402000000000E111108040400040000E3
:1033A00000000E111915151D011E00000000040477
:1033B0000C0A0A1E1233000000000F12120E121225
:1033C000120F000000001E1101010101110E00008A
:1033D00000000F1212121212120F000000001F1232
:1033E0000A0E0A02121F000000001F120A0E0A0233
:1033F0000207000000001C1201013911120C00002C
:1034000000003312121E12121233000000001F04BB
:1034100004040404041F000000003E080808080813
:1034200008090700000037120A060A0A12370000CE
:103430000000070202020202223F000000001B1BE4
:103440001B1B15151515000000003B1216161A1A45
:103450001217000000000E1111111111110E0000C1
:1034600000000F12120E02020207000000000E11EF
:1034700011111117190E180000000F12120E0A1266
:103480001237000000001E1101060810110F000085
:1034900000001F1504040404040E00000000331291
:1034A00012121212120C000000003312120A0A0C3F
:1034B0000404000000001515150E0A0A0A0A00008F
:1034C00000001B0A0A04040A0A1B000000001B0A71
:1034D0000A040404040E000000001F09080404028A
:1034E000121F0000001C04040404040404041C0053
:1034F000000202020404080808100000000E080878
:103500000808080808080E0000040A00000000006F
:103510000000000000000000000000000000003F6C
:103520000004000000000000000000000000000097
:10353000000C121C123C000000000302020E1212CA
:10354000120E000000000000001C1202021C00000D
:1035500000001810101C1212123C000000000000A5
:10356000000C121E021C000000003804041E04049B
:10357000041E000000000000003C120C021E221C71
:1035800000000302020E12121237000000000400B5
:1035900000060404040E000000000800000C0808E7
:1035A0000808080700000302023A0A0E123700005A
:1035B0000000070404040404041F000000000000CD
:1035C000000F15151515000000000000000F121265
:1035D0001237000000000000000C1212120C000054
:1035E00000000000000F1212120E0207000000007F
:1035F000001C1212121C103800000000001B0602F2
:103600000207000000000000001E020C101E000057
:1036100000000004040E0404041800000000000070
:10362000001B1212123C0000000000000037120ABA
:103630000C040000000000000015150E0A0A00002E
:1036400000000000001B0A040A1B0000000000002C
:103650000037120A0C04040300000000001E0804D6
:10366000041E0000001808080804080808081800CC
:1036700008080808080808080808080800060404DC
:1036800004080404040406000225180000000000D9
:10369000000000000000000000000000000000002A
:1036A00000000000000000080808080808080000E2
:1036B0001818000000486C241200000000000000F0
:1036C000000000000000002424247F1212127F1248
:1036D000121200000000081C2A2A0A0C1828282AA6
:1036E0002A1C080800000022251515152A585454D4
:1036F000542200000000000C1212120A7625291133
:10370000916E0000000606040300000000000000A7
:1037100000000000004020101008080808080810E9
:1037200010204000000204080810101010101008AB
:10373000080402000000000008086B1C1C6B08084D
:103740000000000000000000080808087F080808C2
:103750000800000000000000000000000000000061
:10376000060604030000000000000000FE00000048
:103770000000000000000000000000000000000049
:1037800006060000000080404020201010080804B9
:103790000402020000000018244242424242424217
:1037A00024180000000000080E080808080808088F
:1037B000083E00000000003C424242202010080465
:1037C000427E00000000003C42422018204040425F
:1037D000221C0000000000203028242422227E2009
:1037E000207800000000007E0202021A26404042BB
:1037F000221C0000000000382402021A2642424225
:10380000241800000000007E22221010080808087A
:10381000080800000000003C4242422418244242B2
:10382000423C0000000000182442424264584040DC
:10383000241C000000000000000018180000000018
:103840001818000000000000000000080000000040
:1038500000080804000000402010080402040810BA
:10386000204000000000000000007F0000007F00FA
:103870000000000000000002040810204020100892
:10388000040200000000003C4242464020101000AC
:10389000181800000000001C225A555555552D429D
:1038A000221C00000000000808181414243C2242C6
:1038B00042E700000000001F2222221E2242424254
:1038C000221F00000000007C424201010101014270
:1038D000221C00000000001F22424242424242429B
:1038E000221F00000000003F4212121E121202426C
:1038F000423F00000000003F4212121E121202025C
:10390000020700000000003C222201010171212277
:10391000221C0000000000E7424242427E42424236
:1039200042E700000000003E0808080808080808F0
:10393000083E00000000007C101010101010101045
:103940001010110F0000007722120A0E0A12122224
:1039500022770000000000070202020202020202B7
:10396000427F000000000077363636362A2A2A2A9F
:103970002A6B0000000000E346464A4A5252526257
:10398000624700000000001C224141414141414189
:10399000221C00000000003F424242423E0202025E
:1039A000020700000000001C2241414141414D53EB
:1039B000321C60000000003F4242423E12122222AE
:1039C00042C700000000007C42420204182040422E
:1039D000423E00000000007F490808080808080867
:1039E000081C0000000000E74242424242424242BC
:1039F000423C0000000000E7424222242414141834
:103A0000080800000000006B494949495555362215
:103A100022220000000000E7422424181818242461
:103A200042E700000000007722221414080808086A
:103A3000081C00000000007E212010100804044231
:103A4000423F00000078080808080808080808082D
:103A5000080878000000020204040808081010207A
:103A600020204040001E10101010101010101010D8
:103A700010101E000038440000000000000000008C
:103A80000000000000000000000000000000000036
:103A9000000000FF00060800000000000000000019
:103AA00000000000000000000000003C427844429A
:103AB00042FC0000000000030202021A26424242B9
:103AC000261A000000000000000000384402020234
:103AD00044380000000000604040407844424242C8
:103AE00064D80000000000000000003C427E02029A
:103AF000423C0000000000F08808087E0808080822
:103B0000083E0000000000000000007C22221C0291
:103B10003C42423C000000030202023A464242425A
:103B200042E700000000000C0C00000E0808080826
:103B3000083E000000000030300000382020202027
:103B40002020221E0000000302020272120A161236
:103B5000227700000000000E08080808080808087E
:103B6000083E0000000000000000007F9292929248
:103B700092B70000000000000000003B46424242B5
:103B800042E70000000000000000003C42424242C8
:103B9000423C0000000000000000001B26424242A0
:103BA000221E02070000000000000078444242424A
:103BB000447840E000000000000000774C0404045A
:103BC000041F0000000000000000007C42023C4096
:103BD000423E0000000000000008083E08080808F7
:103BE0000830000000000000000000634242424232
:103BF00062DC000000000000000000E74224241402
:103C00000808000000000000000000EB494955557D
:103C1000222200000000000000000076241818187E
:103C2000246E000000000000000000E7422424147D
:103C300018080807000000000000007E2210080895
:103C4000447E000000C020202020201020202020C2
:103C50002020C000101010101010101010101010A4
:103C600010101010000608080808081008080808B6
:103C7000080806000C32C20000000000000000002E
:103C800000000000506C65617365207573652074D9
:103C90006865207374796C757320636C69636B203D
:103CA0007468652063726F7373206F6E207468652B
:103CB0002073637265656E2E5468652063726F733E
:103CC000732077696C6C20616C77617973206D6FFC
:103CD000766520756E74696C2074686520736372F4
:103CE00065656E2061646A7573746D656E742069B4
:103CF0007320636F6D706C657465642E0000000046
:103D0000203D000800000020FC000000B62C000848
:103D10001C3E0008FC000020DC040000C62C00084B
:103D200068000020140000200000FFFF00000000D9
:103D300006000C0000000800100000000C00180035
:103D4000000010002000010006000C000100080027
:103D5000100001000C0018000100100020000200FB
:103D60000A00110002000C001800020010002000E0
:103D7000030006000C0003000800100003000C0004
:103D800018000300100020000000100010000000C8
:103D90001800180000002000200001001000100092
:103DA000010018001800010020002000020010008F
:103DB000100002001800180002002000200003007C
:103DC000100010000300180018000300200020005D
:103DD000040028002000050028002000C925000854
:103DE000F1280008A91C00080000000000000000E5
:103DF00000000000000000000000000000000000C3
:103E000000000000D0900000843C0008000017EF84
:0C3E1000000000000000000000000000A6
:040000050800018965
:00000001FF
