:020000040800F2
:10000000E8090020A10100081507000821060008E2
:1000100011070008E90100086B0F0008000000004C
:10002000000000000000000000000000750C000847
:10003000ED010008000000007D0A0008190E00080C
:10004000BB010008BB010008BB010008BB010008A0
:10005000BB010008BB010008BB010008BB01000890
:10006000BB010008BB010008BB010008BB01000880
:10007000BB010008BB010008BB010008BB01000870
:10008000BB010008BB010008BB010008BB01000860
:10009000BB010008BB010008BB010008BB01000850
:1000A000BB010008BB010008BB010008BB01000840
:1000B000BB010008BB010008BB010008BB01000830
:1000C000BB010008BB010008BB010008BB01000820
:1000D000BB010008850E0008BB010008BB01000839
:1000E000BB010008BB010008BB010008BB01000800
:1000F000BB010008BB010008BB010008BB010008F0
:10010000BB010008BB010008BB010008BB010008DF
:10011000BB010008BB010008BB010008BB010008CF
:10012000BB010008BB010008BB010008BB010008BF
:10013000BB010008BB010008BB010008BB010008AF
:10014000BB010008BB010008BB010008BB0100089F
:10015000BB010008BB010008BB010008BB0100088F
:10016000BB010008BB010008BB010008BB0100087F
:10017000BB010008BB010008BB010008BB0100086F
:10018000BB010008BB010008DFF810D000F01AF82E
:1001900000480047D1100008AFF30080E8090020B4
:1001A0000648804706480047FEE7FEE7FEE7FEE711
:1001B000FEE7FEE7FEE7FEE7FEE7FEE71D0E0008AE
:1001C00089010008064C074D06E0E06840F0010395
:1001D00094E8070098471034AC42F6D3FFF7D8FFF5
:1001E0004C1100086C11000800BFFEE77047F0B525
:1001F0000A4600210023002400BF3DE0012505FA46
:1002000001F3156805EA03049C4234D105684F00E8
:100210000326BE40B543056015794E00B54006681B
:10022000354305601579012D02D01579022D16D1BF
:1002300085684F000326BE40B543856055794E0062
:10024000B540866835438560456801268E40B543D4
:100250004560456896798E40B6B235434560C568BD
:100260004F000326BE40B543C560D5794E00B5406A
:10027000C6683543C560491C1029BFD3F0BDF0B531
:10028000002300244D07ED0E02FA05F3CE1000F115
:10029000200555F826504E07F70E0F26BE40B543F1
:1002A000CF1000F1200646F82750CE1000F12005AF
:1002B00055F8265045EA0304CE1000F1200545F814
:1002C0002640F0BD0246002013690B400BB101200F
:1002D00000E00020704741837047018370470000B1
:1002E0002DE9F04781460D46BD48007820B900F061
:1002F0003FFE0120BA4908702E12EFB2A6F1A1010B
:10030000C1EB011202EB411107EB4101A139B54AE2
:10031000126852885143B34A1268928801FB02F076
:10032000C11700EB5171CC10AE480068008800285E
:1003300044D1AC4800684088102813D1A94800680F
:100340004088A84B1B689B8800FB03F84FEAE870C5
:1003500008EB5070C0F3CF02A3482118484600F0C4
:1003600033FE2BE09F4800684088182813D19D4831
:10037000006840889B4B1B689B8800FB03F84FEA92
:10038000E87008EB5070C0F3CF0298482118484637
:1003900000F01AFE12E0934800684088914B1B68F9
:1003A0009B8800FB03F84FEAE87008EB5070C0F33D
:1003B000CF028F482118484600F006FE89480068A1
:1003C0000088012844D1874800684088102813D14C
:1003D000844800684088834B1B689B8800FB03F8B7
:1003E0004FEAE87008EB5070C0F3CF028148211843
:1003F000484600F0E9FD2BE07A480068408818285C
:1004000013D1784800684088764B1B689B8800FBB6
:1004100003F84FEAE87008EB5070C0F3CF0276485B
:100420002118484600F0D0FD12E06E480068408870
:100430006C4B1B689B8800FB03F84FEAE87008EBE5
:100440005070C0F3CF026D482118484600F0BCFD43
:10045000644800680088022844D1624800684088E7
:10046000102813D15F48006840885E4B1B689B884A
:1004700000FB03F84FEAE87008EB5070C0F3CF02BE
:100480005F482118484600F09FFD2BE05548006862
:100490004088182813D1534800684088514B1B6886
:1004A0009B8800FB03F84FEAE87008EB5070C0F33C
:1004B000CF0254482118484600F086FD12E0494812
:1004C00000684088474B1B689B8800FB03F84FEA95
:1004D000E87008EB5070C0F3CF024B482118484633
:1004E00000F072FD3F4800680088032844D13D4871
:1004F00000684088102813D13A4800684088394B7A
:100500001B689B8800FB03F84FEAE87008EB50700B
:10051000C0F3CF023D482118484600F055FD2BE0BE
:10052000304800684088182813D12E480068408859
:100530002C4B1B689B8800FB03F84FEAE87008EB24
:100540005070C0F3CF0232482118484600F03CFDFD
:1005500012E0244800684088224B1B689B8800FBFF
:1005600003F84FEAE87008EB5070C0F3CF02294857
:100570002118484600F028FD1A4800680088042821
:1005800012D1184800684088164B1B689B8800FBF6
:1005900003F84FEAE87008EB5070C0F3CF021E4832
:1005A0002118484600F010FD0E4800680088052814
:1005B00012D10C48006840880A4B1B689B8800FBDE
:1005C00003F84FEAE87008EB5070C0F3CF0213480D
:1005D0002118484600F0F8FC0020BDE8F087000034
:1005E000110000200400002081341000C3321400E8
:1005F000D52E1D00D7272D00192631002B223A00B9
:100600002D1B4A006F194E0081155700830E67009D
:10061000C50C6B00D70874005DF0AB001BF99700A8
:1006200000BFFEE710B520210748FFF756FE102156
:100630000548FFF752FE20210348FFF74CFE10212A
:100640000148FFF748FE10BD0000024010B5102120
:100650000548FFF742FE20210348FFF73CFE20211A
:100660000148FFF73AFE10BD0000024010B510210E
:100670000348FFF732FE10210148FFF72CFE10BDA2
:10068000000002401CB50121102000F0F9F91820EB
:10069000009000208DF8040001208DF807006946C5
:1006A0000148FFF7A4FD1CBD0010024070B50446D0
:1006B0000D4629462046FFF705FE40B900BF2946F2
:1006C0002046FFF7FFFD0028F9D0002070BD012073
:1006D000FCE700001CB50121084600F0D1F9C0205C
:1006E000009001208DF8040000208DF80600012004
:1006F0008DF8070003208DF8050069460348FFF7D1
:1007000076FDC0210148FFF7E8FD1CBD0000024056
:1007100000BFFEE77047000070B500240CE0002524
:1007200006E00020074901EBC5010855681CC5B269
:10073000802DF6DB601CC4B2082CF0DB00F006F95B
:1007400070BD00009C00002010B504461CB90021BB
:10075000A62000F077F9012C03D10021A72000F09A
:1007600071F910BD2DE9F04705460E4614461648AE
:100770000068B0F8028014480068B0F804901DE0EA
:1007800028464044802805DD00250F480068808801
:10079000304486B230464844402801DD002500261A
:1007A0002788380200EB272087B23A463146284690
:1007B00000F0F8F805EB080085B2A41C20780028AA
:1007C000DED1BDE8F08700000400002010B504462B
:1007D0003CB90021C82000F035F90021A12000F02B
:1007E00031F9012C07D10021C02000F02BF90021A4
:1007F000A02000F027F910BD70B50A46CE1701EB16
:100800005676C6F3C703CE1701EB5676F610A1EB6A
:10081000C606F4B20122A240D5B2054A02EBC002DC
:10082000D25C2A43024E06EBC006F25470BD0000B3
:100830009C0000201CB50121084600F021F9302061
:10084000009001208DF8040000208DF806000120A2
:100850008DF8070003208DF8050069463A48FFF738
:10086000C6FC0021AE2000F0EDF80021084600F0A3
:10087000E9F80021102000F0E5F80021402000F008
:10088000E1F80021812000F0DDF80021CF2000F008
:10089000D9F80021A12000F0D5F80021C82000F0EF
:1008A000D1F80021A62000F0CDF80021A82000F00A
:1008B000C9F800213F2000F0C5F80021D32000F046
:1008C000C1F80021084600F0BDF80021D52000F055
:1008D000B9F80021802000F0B5F80021D92000F0FF
:1008E000B1F80021F12000F0ADF80021DA2000F08D
:1008F000A9F80021122000F0A5F80021DB2000F06B
:10090000A1F80021402000F09DF80021202000F0F7
:1009100099F80021022000F095F800218D2000F0C8
:1009200091F80021142000F08DF80021A42000F09F
:1009300089F80021A62000F085F80021AF2000F002
:1009400081F8FFF7E9FE1CBD0000024070B50024ED
:100950001CE004F1B001C8B2002100F073F80021DE
:10096000084600F06FF80021102000F06BF8002519
:1009700008E0084901EBC501085D012100F062F8BB
:10098000681CC5B2802DF4DB601CC4B2082CE0DB0F
:1009900070BD00009C000020014908607047000005
:1009A000040000202DE9F043B3B004460D46914603
:1009B000A0462348006880882844401E83B220480F
:1009C000006840882044401E82B22946204600F03C
:1009D000EFF9494601A8FFF783FC00261FE0002736
:1009E00018E001A8805D80213941084018B1E9B2C2
:1009F000E0B2FFF701FF601C84B2A4EB08001049CD
:100A000009684988884203D14446681C85B203E0DE
:100A1000781CC7B2082FE4DB00BF701CC6B20849BF
:100A200009688988064A1268528801FB02F0C117DA
:100A300000EB5171B6EBE10FD1DB33B0BDE8F083D1
:100A40000400002070B505460C46FFF7EBFD78204A
:100A500000F012F9FFF70AFE1CB1402000F00CF97B
:100A600002E0002000F008F9FFF700FE284600F041
:100A700003F9FFF7FBFDFFF7E9FD70BD70470000CC
:100A800029B1064A12680243044B1A6004E0034A83
:100A900012688243014B1A607047000030380240F0
:100AA00029B1064A12680243044B1A6004E0034A63
:100AB00012688243014B1A607047000044380240BC
:100AC00029B1064A12680243044B1A6004E0034A43
:100AD00012688243014B1A607047000024380240BC
:100AE00000B587B001210220FFF7CAFF01210803EA
:100AF000FFF7D6FF3820059002208DF8180000205F
:100B00008DF81A0003208DF8190001208DF81B00C4
:100B100005A92248FFF76BFB052203211F48FFF7B9
:100B2000AEFB052204211D48FFF7A9FB0522114653
:100B30001A48FFF7A4FB01210803FFF7C1FF0021BA
:100B40004FF48050FFF7BCFF0020ADF800004FF4D9
:100B50008270ADF802000020ADF804000220ADF86C
:100B600006000120ADF808004002ADF80A00382068
:100B7000ADF80C000020ADF80E000720ADF8100015
:100B80006946074800F058F80121054800F03AF896
:100B9000FF2000F007F807B000BD0000000402408D
:100BA0000030014010B5044600BF02210A4800F0A1
:100BB00035F80028F9D02146074800F03BF800BF7F
:100BC0000121054800F02AF80028F9D0024800F079
:100BD0002EF8C0B210BD00000030014010B5044630
:100BE000074800884FF6C771084005490880084645
:100BF0000088204308800121014800F003F810BD5F
:100C00000030014021B1028842F04002028004E03D
:100C100002884FF6BF731A400280704702460020D8
:100C200013890B400BB1012000E000207047014602
:100C3000888970478181704710B50022028802F4CC
:100C400041520B884C8823438C882343CC88234310
:100C50000C8923434C8923438C892343CC89234328
:100C60001A430280838B4FF2FF74234083830B8AE5
:100C7000038210BD7047000070B5044600251BE0DC
:100C800010210F48FFF727FB04F0800020B120213E
:100C90000B48FFF722FB03E020210948FFF71BFB6D
:100CA00010210748FFF719FB10210548FFF713FB38
:100CB0006006040E681CC5B2082DE1DB70BD0000A3
:100CC000000002400CB500200190009034480068FC
:100CD00040F480303249086000BF3148006800F4B9
:100CE000003000900198401C0190009818B90198BC
:100CF000B0F5A04FF1D12A48006800F4003010B1DF
:100D00000120009001E0002000900098012846D1C9
:100D100023484030006840F080502149403108604D
:100D20002048006840F440401E4908601C480830D4
:100D300000681B49083108600846006840F400401C
:100D400008600846006840F4A05008601648091F73
:100D50000860081F006840F08070091F086000BF2D
:100D60000F48006800F000700028F9D040F20570CC
:100D70000E4908600A480830006820F0030008495E
:100D8000083108600846006840F00200086000BFB3
:100D900003480830006800F00C000828F8D10CBDAA
:100DA000003802400070004019544007003C0240E7
:100DB0002DE9F04104460D4616461F460021B0209D
:100DC000FFF740FEE0B20021FFF73CFEF0B2002149
:100DD000FFF738FE00210846FFF734FEE8B2002195
:100DE000FFF730FEF8B20021FFF72CFEBDE8F081DE
:100DF000042808D14FF0E021096941F004014FF0C7
:100E0000E022116107E04FF0E021096921F00401BF
:100E10004FF0E022116170477047000010B515488F
:100E2000006840F47000134908601348006840F0FF
:100E300001001149086000200F49083108600E4880
:100E400000680E4908400C4908600D48091D0860FB
:100E5000081F006820F48020091F08600020064950
:100E60000C310860FFF72EFF4FF000600149803918
:100E7000086010BD88ED00E000380240FFFFF6FE7C
:100E80001030002410B540F225511D4800F03EF806
:100E900010B31B4800F064F8C4B21A48008800F48C
:100EA0000040C8B91748008800F4804060B10A2C9F
:100EB00003D000201349088020E01248008840F445
:100EC00000401049088019E00D2C06D10D4800881B
:100ED00040F480400B49088010E00A480088C0F3C5
:100EE0000D0009490C5407480088401C054908803A
:100EF00008460088C72801DD0020088010BD0000DA
:100F0000001001409A0000201C05002070B5024628
:100F1000002400230025002040F66A16B14200D1CB
:100F200000BFC1F3421501F01F03012606FA03F3C7
:100F3000012D02D19689334006E0022D02D1168A96
:100F4000334001E0968A33400C12012606FA04F47D
:100F50001688344013B10CB1012000E0002070BDB0
:100F600001468888C0F30800704700BFFEE7000014
:100F700000B593B001210220FFF782FD012001900E
:100F80008DF8080000208DF80A0003208DF8090074
:100F900001208DF80B0001A90848FFF728F901206E
:100FA00007490860FFF79CFD0020FFF717FE03A824
:100FB00000F030F80349088013B000BD000402407F
:100FC00080824042020000202DE9F04106460C4696
:100FD000174600200E4908600320FFF7E3FDC4F325
:100FE0000740FFF7DFFDC4F30720FFF7DBFDE0B2AA
:100FF000FFF7D8FD002504E0FF20FFF7D3FD705573
:101000006D1CBD42F8D3012001490860BDE8F081A4
:101010008082404270B504460025002013490860D4
:101020009020FFF7BFFD0020FFF7BCFD0020FFF779
:10103000B9FD0020FFF7B6FDFF20FFF7B3FD00026A
:1010400004F8010BFF20FFF7ADFD2070FF20FFF734
:10105000A9FD45EA0025FF20FFF7A4FD0543012077
:101060000349C1F88002284670BD000080824042DA
:101070000080404202E008C8121F08C1002AFAD1CD
:1010800070477047002001E001C1121F002AFBD108
:101090007047000010B504466FF00400FFF7A8FE8B
:1010A000E11704EB5171C1F3C701074A11701046F3
:1010B000007800EB4001C1EBC0104FF6FF7101EA70
:1010C000C0000249088010BD960000209800002052
:1010D000A820FFF7DFFFFFF7D5FAFFF7FBFAFFF7CE
:1010E000A9FB1548FFF758FC0020FFF76FFB002015
:1010F000FFF72AFBFFF710FB10A200210846FFF7BD
:1011000031FBFFF723FC15E010210E48FFF7CEFA64
:1011100028B90D48406980F040000B49486108211A
:101120000848FFF7C3FA28B90748406980F08000F3
:1011300005494861E8E7000090000020CED2B0AE3B
:10114000C4E3000000100240000002406C110008DF
:10115000000000209C000000741000080812000825
:101160009C0000204C09000084100008000017EFCC
:1011700042000020180000200000000000000100D4
:1011800006000C0001000800100001000C0018000F
:10119000010010002000000006000C000000080004
:1011A000100000000C0018000000100020000000DB
:1011B000100010000000180018000000200020009F
:1011C00001001000100001001800180001002000AC
:1011D0002000020010001000020018001800020099
:1011E0002000200003001000100003001800180069
:1011F0000300200020000400280020000500280033
:081200002000000000000000C6
:040000050800018965
:00000001FF
